:100000000C9488000C94B0000C94B0000C94B000D8
:100010000C94B0000C94B0000C94B0000C94B000A0
:100020000C94B0000C94B0000C94B0000C94B00090
:100030000C94B0000C94B0000C94B0000C94B00080
:100040000C9457050C94B0000C94C7050C94A105B2
:100050000C94B0000C94B0000C94B0000C94B00060
:100060000C94B0000C94B0000000000024002700A5
:100070002A0000000000250028002B0004040404CE
:100080000404040402020202020203030303030342
:10009000010204081020408001020408102001021F
:1000A00004081020000000080002010000030407FB
:1000B00000000000000000004F564621000D0A2BF2
:1000C000202B202B2020462052204920442047204E
:1000D00045202043204F204E20542052204F204CBA
:1000E000204C2045205220202B202B202B0D0A00B5
:1000F0003A2000202068003A20002C200020280010
:10010000436F6D6D616E64733A000D0A000049061D
:1001100011241FBECFEFD8E0DEBFCDBF11E0A0E0BD
:10012000B1E0E4E2F9E102C005900D92AC38B1070C
:10013000D9F722E0ACE8B1E001C01D92AB3EB207B6
:10014000E1F710E0C8E8D0E004C02197FE010E946A
:100150008A0CC738D107C9F70E944F060C949D0935
:100160000C9400000F931F93CF93DF938C01D0E08A
:10017000C0E0F801EC0FFD1F6491662371F0E0917F
:100180004E02F0914F020190F081E02D8EE492E05A
:100190000995892B11F02196ECCFCE01DF91CF91FB
:1001A0001F910F91089590911E02992359F0E091AB
:1001B0004E02F0914F020190F081E02D682F8EE405
:1001C00092E0099408950F931F93CF93DF93EC016E
:1001D0008881882309F458C0FE018191803279F129
:1001E000893069F18E01095C1F4F4C2F9D2F899139
:1001F0008D3071F08A3061F0882351F0082E000CA8
:10020000990B0E94D3004C2F9D2F0C171D0769F7E7
:10021000242F392FE901F90181918F01803289F072
:10022000893079F08D30C9F08A30B9F08823B1F087
:10023000082E000C990B0E94D3009801EBCFEF0120
:10024000CBCFE90188812F5F3F4F8032D1F38930D6
:10025000C1F38D3011F08A3009F42196888188230A
:1002600009F4B6CF8DE090E00E94D3008AE090E0E0
:100270000E94D3000FE010E080E290E00E94D300E3
:1002800001501109C9F7A4CF8DE090E00E94D3007E
:100290008AE090E0DF91CF911F910F910C94D300F1
:1002A000FC01538D448D252F30E0842F90E0821B7C
:1002B000930B541710F0CF96089501970895FC0101
:1002C000918D828D981761F0A28DAE0FBF2FB11D59
:1002D0005D968C91928D9F5F9F73928F90E00895B1
:1002E0008FEF9FEF0895FC01918D828D981731F06B
:1002F000828DE80FF11D858D90E008958FEF9FEFBF
:100300000895FC01918D228D892F90E0805C9F4F94
:10031000821B91098F7399270895FC01A48DA80F62
:10032000B92FB11DA35ABF4F2C91848D90E0019637
:100330008F739927848FA689B7892C93A089B18957
:100340008C91837080648C93938D848D981306C0F8
:100350000288F389E02D80818F7D80830895EF925C
:10036000FF920F931F93CF93DF93EC0181E0888F6F
:100370009B8D8C8D98131AC0E889F989808185FF3F
:1003800015C09FB7F894EE89FF896083E889F989E1
:1003900080818370806480839FBF81E090E0DF91E3
:1003A000CF911F910F91FF90EF900895F62E0B8D36
:1003B00010E00F5F1F4F0F731127E02E8C8D8E11F1
:1003C0000CC00FB607FCFACFE889F989808185FF58
:1003D000F5CFCE010E948D01F1CFEB8DEC0FFD2FFB
:1003E000F11DE35AFF4FF0829FB7F8940B8FEA8913
:1003F000FB8980818062CFCFCF93DF93EC01888D22
:100400008823B9F0AA89BB89E889F9898C9185FD8F
:1004100003C0808186FD0DC00FB607FCF7CF8C911D
:1004200085FFF2CF808185FFEDCFCE010E948D0147
:10043000E9CFDF91CF9108958EE492E00E9481018F
:1004400021E0892B09F420E0822F089580E090E0DC
:10045000892B29F00E941C0281110C940000089540
:10046000789484B5826084BD84B5816084BD85B58F
:10047000826085BD85B5816085BDEEE6F0E0808156
:1004800081608083E1E8F0E0108280818260808377
:10049000808181608083E0E8F0E0808181608083FA
:1004A000E1EBF0E0808184608083E0EBF0E080812C
:1004B00081608083EAE7F0E08081846080838081CE
:1004C0008260808380818E7F80838081806880834A
:1004D0001092C10008952FB7F8946091A601709111
:1004E000A7018091A8019091A9012FBF0895AF9213
:1004F000BF92CF92DF92EF92FF920F931F93CF9311
:10050000DF936C017B018B01040F151FEB015E0172
:10051000AE18BF08C017D10759F06991D601ED9107
:10052000FC910190F081E02DC6010995892B79F7A6
:10053000C501DF91CF911F910F91FF90EF90DF9058
:10054000CF90BF90AF90089590E0FC01EC55FF4F25
:100550002491FC01E057FF4F3491FC01E458FF4F18
:10056000E491EE23C9F0222339F0233001F1A8F4FD
:10057000213019F1223029F1F0E0EE0FFF1FEE5883
:10058000FF4FA591B4918FB7F894EC91611126C0FB
:1005900030953E233C938FBF08952730A9F0283033
:1005A000C9F0243049F7809180008F7D03C080918D
:1005B00080008F7780938000DFCF84B58F7784BDF4
:1005C000DBCF84B58F7DFBCF8091B0008F77809398
:1005D000B000D2CF8091B0008F7DF9CF3E2BDACF23
:1005E000CF93DF9390E0FC01E057FF4F24918458B4
:1005F0009F4FFC0184918823D1F090E0880F991FD0
:10060000FC01E859FF4FA591B491FC01EE58FF4F52
:10061000C591D491623071F49FB7F8943C91822FC8
:10062000809583238C93E8812E2B28839FBFDF91B5
:10063000CF9108958FB7F894EC912E2B2C938FBF08
:10064000F6CFFC0101900020E9F73197AF01481B7C
:10065000590BE0914E02F0914F020280F381E02DA0
:10066000BC018EE492E0099480911E02882341F03F
:100670008BE891E00E9421038AE091E00C94B200A3
:10068000089560E086E00E94A40280918E01882394
:1006900009F464C08091980190919901A0919A0108
:1006A000B0919B0184369105A105B10571F480914B
:1006B0009C0190919D01A0919E01B0919F01843871
:1006C0009340A105B10509F449C08091940190912E
:1006D0009501A0919601B0919701181619061A0676
:1006E0001B06E4F18EEF9FEFAFEFBFEF8093940115
:1006F00090939501A0939601B093970184E690E0C2
:10070000A0E0B0E08093980190939901A0939A01A2
:10071000B0939B0184E893E0A0E0B0E080939C015B
:1007200090939D01A0939E01B0939F0191E09093BF
:100730008C0180918D0189278093A0010E946B021A
:100740006093900170939101809392019093930133
:100750006091A00180918F010E94A40282E191E04A
:100760000E94210389E891E00E94210390E080E04B
:100770000895CF93DF930E94B200EC0189E891E0E5
:100780000E9421038C0F9D1FDF91CF91089561E09E
:1007900086E00E94A40280918E01882341F110928C
:1007A0008C0160918D0180918F010E94A4021092B2
:1007B00098011092990110929A0110929B01109247
:1007C0009C0110929D0110929E0110929F01109227
:1007D000940110929501109296011092970181E078
:1007E00080938D0161E080918F010E94A40281E2DB
:1007F00091E00E94210389E891E00E94210390E0AA
:1008000080E00895CF93DF93CDB7DEB780911E02CD
:10081000882379F09E01275F3F4F4F81588568E21A
:1008200070E08FE192E00E94A9098FE192E00E94BE
:100830002103DF91CF9108953F924F925F926F9283
:100840007F928F929F92AF92BF92CF92DF92EF9260
:10085000FF920F931F93CF93DF93CDB7DEB76E97C1
:100860000FB6F894DEBF0FBECDBF60911C02709131
:100870001D02EAEAF1E0B12CA12C90E080E086179D
:1008800097077CF58E30910561F1AAEAB1E040E06E
:1008900030E020E08217930771F0E2A0F3A0929677
:1008A0000D911C919397E016F10609F441E02F5F3A
:1008B0003F4F1696EFCF411111C0D501AA0FBB1FB4
:1008C00021E030E02C0F3D1FA20FB31F9F01225EDD
:1008D0003F4F2D933C933FEFA31AB30A01963696F0
:1008E000CECF0E94340380E091E00E94B903CE0194
:1008F00001969E8F8D8FD12CC12C2AEA422E21E0A9
:10090000522EAC14BD0409F4A4C09EE0C916D10453
:1009100009F49FC0AD8DBE8D6D907D90BE8FAD8F63
:10092000F30181818F9380818F932FE231E03F9398
:100930002F935F924F920E940204D301ED91FC919C
:10094000DF010D900020E9F78D010E1B1F0B0F5FDB
:100950001F4F0F900F900F900F900F900F909AEAEB
:10096000E92E91E0F92E312C912C812C80911C02E2
:1009700090911D02881699060CF044C0BEE08B16BB
:10098000910409F43FC0F70122A133A1D3011496C9
:100990008D919C9115972817390769F56D917C9178
:1009A000868D978D0E94A009892B29F10E5F1F4F1C
:1009B0008DEF90E0332011F08AEF90E00E94B200BA
:1009C000F701878D8F93868D8F935F924F920E9450
:1009D0000204F701A68DB78DFD0101900020E9F713
:1009E0003197EA1BFB0B0E0F1F1F0F900F900F90FC
:1009F0000F9033243394FFEF8F1A9F0A26E0E20E04
:100A0000F11CB4CF332031F084E391E00E94210344
:100A10000F5F1F4F8DE0E82EF12CE01AF10A10E075
:100A200000E00E151F053CF480E290E00E94D30028
:100A30000F5F1F4FF6CF87EF90E00E94B200D30107
:100A400012968D919C910E94E300BFEFCB1ADB0AB6
:100A500058CF83EF90E00E94B2000AE010E080E2FD
:100A600090E00E94D30001501109C9F780EF90E097
:100A70000E94B20086E391E00E94E3006E960FB6FA
:100A8000F894DEBF0FBECDBFDF91CF911F910F91C4
:100A9000FF90EF90DF90CF90BF90AF909F908F909E
:100AA0007F906F905F904F903F900C9434031F9213
:100AB0000F920FB60F9211242F933F938F939F9312
:100AC000AF93BF938091A6019091A701A091A80137
:100AD000B091A9013091A50126E0230F2D3758F5DB
:100AE0000296A11DB11D2093A5018093A6019093AC
:100AF000A701A093A801B093A9018091A1019091B1
:100B0000A201A091A301B091A4010196A11DB11D64
:100B10008093A1019093A201A093A301B093A4019B
:100B2000BF91AF919F918F913F912F910F900FBEE9
:100B30000F901F90189529E8230F0396A11DB11D52
:100B4000D2CF1F920F920FB60F9211242F933F9383
:100B50004F935F936F937F938F939F93AF93BF93C5
:100B6000EF93FF938EE492E00E948D01FF91EF914D
:100B7000BF91AF919F918F917F916F915F914F91B5
:100B80003F912F910F900FBE0F901F9018951F92BD
:100B90000F920FB60F9211242F938F939F93EF9381
:100BA000FF93E0915E02F0915F028081E091640228
:100BB000F091650282FD1BC09081809167028F5F7A
:100BC0008F7320916802821741F0E0916702F0E094
:100BD000E25BFD4F958F80936702FF91EF919F91AC
:100BE0008F912F910F900FBE0F901F9018958081BD
:100BF000F4CF10921E0210924802109247021092F7
:100C00004A021092490210924C0210924B0210922A
:100C10004D020895EEE4F2E01382128288EE93E032
:100C2000A0E0B0E084839583A683B78384E091E05D
:100C30009183808385EC90E09587848784EC90E0B5
:100C40009787868780EC90E0918B808B81EC90E099
:100C5000938B828B82EC90E0958B848B86EC90E07A
:100C6000978B868B118E128E138E148E0895ECE85E
:100C7000F1E010821182128214821582168217828C
:100C80001486158616861786108A118A128A138A88
:100C900008950E94F9050E940A060C9437060E94E6
:100CA000300262E08CE00E94F00261E086E00E9487
:100CB000F00260E086E00E94A4028DE080938F0144
:100CC00061E00E94F00260E08DE00E94A4021092B8
:100CD0008D0110928C0111E010938E01CAEAD1E0CF
:100CE00010921D0210921C0210931E0210924D02CF
:100CF000D093C301C093C20182EB91E09093C501F0
:100D00008093C4018AEB91E09093C7018093C60160
:100D1000E0915E02F0915F0282E08083E0915A02EE
:100D2000F0915B021082E0915C02F0915D0280E143
:100D3000808310926602E0916202F091630206E005
:100D40000083E0916002F091610280818061808384
:100D5000E0916002F0916102808188608083E0917F
:100D60006002F0916102808180688083E09160027E
:100D7000F091610280818F7D80838DEB90E00E94F5
:100D8000B9031F921F921F921F921F921F938BE312
:100D900091E09F938F93DF93CF930E940204EDB76E
:100DA000FEB73A960FB6F894FEBF0FBEEDBF809126
:100DB0001E02882361F080911C0290911D028E30EA
:100DC00091050CF455C188EB90E00E94B903809125
:100DD0001E02882361F080911C0290911D028E30CA
:100DE00091050CF45EC188EB90E00E94B9038091FC
:100DF0001E0281110E941C0480918E01882309F437
:100E000064C08091980190919901A0919A01B0914C
:100E10009B0184369105A105B10571F480919C0177
:100E200090919D01A0919E01B0919F0184389340C3
:100E3000A105B10509F449C08091940190919501F3
:100E4000A0919601B0919701181619061A061B0673
:100E5000E4F18EEF9FEFAFEFBFEF8093940190939B
:100E60009501A0939601B093970184E690E0A0E0ED
:100E7000B0E08093980190939901A0939A01B09368
:100E80009B0184E893E0A0E0B0E080939C01909304
:100E90009D01A0939E01B0939F0191E090938C01DE
:100EA00080918D0189278093A0010E946B0260933D
:100EB00090017093910180939201909393016091BE
:100EC000A00180918F010E94A40288E19EE00FB6EC
:100ED000F894A895809360000FBE909360007AEA22
:100EE000472E71E0572EE3E06E2E712CF4E0EF2ECA
:100EF000F12CA2E0CA2ED12C80911E02CFEF8823C4
:100F000029F08EE492E00E945F01C82F80914D028B
:100F1000882349F0CF3F39F0CA3019F0CD3009F0BD
:100F2000DAC00E94340380914702909148028230D7
:100F3000910509F45BC108F0D5C0009709F415C10B
:100F4000019709F430C180918E01882309F482C091
:100F500080918C01882309F47DC00E946B024B01B3
:100F60005C012091A0018091900190919101A0914C
:100F70009201B0919301B501A401481B590B6A0B72
:100F80007B0B222309F4D0C18091980190919901A3
:100F9000A0919A01B0919B0184179507A607B70706
:100FA00008F058C061E062276093A00180918F0132
:100FB0000E94A4028092900190929101A0929201CD
:100FC000B09293018091940190919501A091960126
:100FD000B0919701181619061A061B065CF40197C2
:100FE000A109B1098093940190939501A093960172
:100FF000B09397018091940190919501A0919601F1
:10100000B0919701892B8A2B8B2B21F580918E0132
:10101000882301F110928C0160918D0180918F01E4
:101020000E94A402109298011092990110929A01C4
:1010300010929B0110929C0110929D0110929E01B2
:1010400010929F01109294011092950110929601B6
:1010500010929701A89580E090E0892B09F44CCF7D
:101060000E941C02882309F447CF0E94000044CF4D
:10107000089FF001099FF00D1124E655FE4F2CE268
:1010800031E0378F268F2AE431E031A320A327EC0B
:1010900033E033A322A3019690931D0280931C0298
:1010A00096CE26E0289FF001299FF00D1124E655E9
:1010B000FE4F2DE131E0378F268F21E631E031A35D
:1010C00020A321E433E033A322A3019690931D02D1
:1010D00080931C028CCE8C2F0C2E000C990B0E943E
:1010E000D30021CF8330910509F4EAC0049709F0B9
:1010F0002ACF10924802109247023090C2012090ED
:10110000C30169E771E0832D922D0E94A009892B0C
:1011100009F4EFC0A0901C02B0901D020AEA11E091
:10112000D0E0C0E0CA15DB050CF0EDC0F801668D1B
:10113000778D832D922D0E94A0090A5F1F4F892B66
:1011400009F0DFC026E02C9FF0012D9FF00D112447
:10115000E655FE4F02A0F3A1E02D62EC71E0809114
:10116000490290914A020995EECE10924A021092DD
:10117000490210924C0210924B02E091C201F09190
:10118000C3011082E091C401F091C5011082E09189
:10119000C601F091C701108281E090E0909348026F
:1011A00080934702D0CEC1320CF4CDCEE0914902FB
:1011B000F0914A02EE0FFF1FEE53FE4F80819181A6
:1011C00020914B0230914C02820F931FFC01C0838F
:1011D00080914B0290914C02019690934C02809327
:1011E0004B02D0924802C0924702ADCE80914B0292
:1011F00090914C02C03229F0C93019F08730910526
:1012000004F1E0914902F0914A02EE0FFF1FEE5304
:10121000FE4F20813181820F931FFC01108280914B
:10122000490290914A02019690934A0280934902A2
:1012300010924C0210924B02709248026092470248
:1012400082CECD3011F0CA3001F5E0914902F09123
:101250004A02EE0FFF1FEE53FE4F20813181820FB5
:10126000931FFC0110828091490290914A020196DD
:1012700090934A028093490210924C0210924B02C2
:10128000F0924802E09247025ECEC1320CF45BCE8F
:10129000E0914902F0914A02EE0FFF1FEE53FE4F1C
:1012A00020813181820F931FFC01C08380914B020A
:1012B00090914C02019690934C0280934B0243CE46
:1012C000C03209F440CEC93009F43DCECD30C1F270
:1012D000CA30B1F2C1320CF436CE809149029091FD
:1012E0004A02833091050CF02ECE880F991FFC0125
:1012F00063CF80911E02882309F425CE0E941C042E
:1013000022CE21960FCF2F923F928BE791E09F93B1
:101310008F935F924F920E9402040F900F900F9054
:101320000F900F900F900FCE80919C0190919D0196
:10133000A0919E01B0919F012FCEF8940C94900C37
:10134000FB01DC018D91019080190110D9F3990BFB
:101350000895AEE0B0E0EFEAF9E00C94610C8C0186
:10136000FA0186E08C831A83098377FF02C060E06C
:1013700070E8615071097E836D83A901BF01CE01C0
:1013800001960E94D5094D815E8157FD0AC02F81CB
:101390003885421753070CF49A01020F131FF80106
:1013A00010822E96E4E00C947D0CABE0B0E0EBED07
:1013B000F9E00C94530C7C013B018A01FC0117827B
:1013C0001682838181FFC8C1CE0101965C01F701BD
:1013D0009381F30193FD859193FF81913F018823D0
:1013E00009F453C1853239F493FD859193FF8191BE
:1013F0003F01853229F4B70190E00E94C50BE7CF89
:10140000912C212C312CFFE1F31538F08B3211F1A6
:1014100090F4803209F1833229F137FC3CC020ED91
:10142000280F2A3050F536FE20C08AE0989E200D05
:101430001124922E06C08D3291F0803371F768949A
:1014400030F8F30193FD859193FF81913F01811164
:10145000DACF21C0689431F8689432F8F2CF6894FA
:1014600033F8EFCF689434F8ECCFEAE02E9E200DED
:101470001124222E689435F8E4CF8E3229F436FCFC
:1014800004C1689436F8DDCF8C3619F4689437F8C7
:10149000D8CF8836B1F2982F9F7D95549330E0F0E5
:1014A0008336A1F18337C1F1833509F063C0280188
:1014B000F2E04F0E511CF801C080D180692D70E020
:1014C00036FC02C06FEF7FEFC6010E94AF0B4C01EC
:1014D000689437F882010AC00C5F1F4FFFE3F9835D
:1014E00088248394912C6501E89437F833FE2DC04D
:1014F000522C8114910471F5552009F468CFB7017D
:1015000080E290E00E94C50B5A94F6CFF8018081EA
:1015100089830E5F1F4FE4CF2801F2E04F0E511C6C
:10152000F801C080D180692D70E036FC02C06FEFF9
:101530007FEFC6010E94BA0B4C018201D5CFB701E3
:1015400080E290E00E94C50B2A942814190409F047
:10155000B0F7CECFF60137FC859137FE81916F0150
:10156000B70190E00E94C50B51105A94F1E08F1A18
:101570009108BFCF843619F0893609F077C0F80199
:1015800037FE6BC060817181828193810C5F1F4F38
:10159000F32DFF763F2E97FF09C0909580957095AB
:1015A00061957F4F8F4F9F4F689437F82AE030E066
:1015B000A5010E94F50BC82ECA188C2C432C36FEB0
:1015C0000CC0E89440F8C91440F434FE05C032FC65
:1015D00003C0F32DFE7E4F2E892C44FE95C0FE01E4
:1015E000EC0DF11D8081803309F087C0242D297E08
:1015F000422E842D8870582E43FC95C040FE8FC02B
:101600009C2C821418F42C0C922C981844FE91C037
:10161000B70180E390E00E94C50B42FE09C088E755
:1016200090E041FE02C088E590E0B7010E94C50B42
:10163000C91408F48AC0CA94D12C9FEFC91AD90AD8
:10164000CA0CDB1CF60182916F01B70190E00E9489
:10165000C50BAC14BD04B1F74FCF60817181072E6B
:10166000000C880B990B0E5F1F4F92CFD32CE89480
:10167000D4F82AE030E0853739F1232D297FD22EA6
:101680008F3601F148F48835A9F0F70186819781FA
:101690002B96E2E10C946F0C803749F08837A9F75C
:1016A000D4FE02C06894D2F820E130E00DC0689406
:1016B000D4F8F6CF34FE03C0822F8660D82E20E106
:1016C00032E002C028E030E0F801D7FE0FC06081B0
:1016D0007181828193810C5F1F4FA5010E94F50BE0
:1016E000C82ECA183D2CE89437F867CF6081718105
:1016F00090E080E00E5F1F4FF0CF42FC02C0839469
:1017000078CF8394839475CF842D867809F471CF34
:10171000F6CFB70180E290E00E94C50B839482145B
:10172000C0F3512C73CF522C5818821408F46ECF8A
:10173000F8CF842D867809F47BCF8BE241FE80E2DE
:1017400047FC8DE2B70190E071CFB70180E390E0F4
:101750000E94C50B9A946CCF8FEF9FEF99CFFC013D
:101760000590615070400110D8F7809590958E0FCC
:101770009F1F0895FC016150704001900110D8F73F
:10178000809590958E0F9F1F08950F931F93CF9371
:10179000DF93182F092FEB018B8181FD09C01FEF0B
:1017A0000FEF812F902FDF91CF911F910F9108950F
:1017B00082FF14C02E813F818C819D8128173907BB
:1017C0003CF4E881F981CF010196998388831083E5
:1017D0008E819F8101969F838E83E3CFE885F98573
:1017E000812F0995892BA1F3DACFFA01AA27283096
:1017F00051F1203181F1E8946F936E7F6E5F7F4FDE
:101800008F4F9F4FAF4FB1E03ED0B4E03CD0670F59
:10181000781F891F9A1FA11D680F791F8A1F911DAC
:10182000A11D6A0F711D811D911DA11D20D009F4FC
:1018300068943F912AE0269F11243019305D31933E
:10184000DEF6CF010895462F4770405D4193B3E027
:101850000FD0C9F7F6CF462F4F70405D4A3318F0CE
:10186000495D31FD4052419302D0A9F7EACFB4E07F
:10187000A6959795879577956795BA95C9F7009737
:101880006105710508959B01AC010A2E06945795D8
:10189000479537952795BA95C9F7620F731F841F2F
:1018A000951FA01D08952F923F924F925F926F92C5
:1018B0007F928F929F92AF92BF92CF92DF92EF92E0
:1018C000FF920F931F93CF93DF93CDB7DEB7CA1B61
:1018D000DB0B0FB6F894DEBF0FBECDBF09942A888C
:1018E000398848885F846E847D848C849B84AA8434
:1018F000B984C884DF80EE80FD800C811B81AA81C1
:10190000B981CE0FD11D0FB6F894DEBF0FBECDBF8B
:10191000ED010895EE0FFF1F0590F491E02D09945D
:04192000F894FFCF69
:1019240000000000AF0177025001FC0181015F015A
:101934007301436F6D70726573736F72206F6666A7
:1019440000436F6D70726573736F72206F6E002049
:1019540020257300290048656C7000562025642EEC
:1019640025642E25640D0A0D0A005475726E206FCD
:101974006E2074686520636F6D70726573736F7227
:10198400005475726E206F66662074686520636FFC
:101994006D70726573736F72006800556E6B6E6F55
:0C19A400776E20272573270D0A0D0A001E
:00000001FF
